:020000040800F2
:1000000000500020ED120008CD110008CF110008AB
:10001000D1110008D3110008D5110008000000001C
:10002000000000000000000000000000D7110008E0
:10003000D911000800000000DB110008DD110008E4
:100040003513000835130008351300083513000870
:100050003513000835130008351300083513000860
:100060003513000835130008351300083513000850
:100070003513000835130008351300083513000840
:100080003513000835130008351300083513000830
:100090003513000835130008351300083513000820
:1000A0003513000835130008351300083513000810
:1000B0003513000835130008351300083513000800
:1000C00035130008351300083513000835130008F0
:1000D00035130008ED11000835130008351300082A
:1000E0003513000835130008351300080000000020
:1000F0000000000000000000000000000000000000
:0C01000000000000000000005FF808F1A3
:10010C0010B5054C237833B9044B13B10448AFF345
:10011C0000800123237010BD0C00002000000000A3
:10012C008013000808B5034B1BB103490348AFF318
:10013C00008008BD000000001000002080130008A3
:10014C0038B50E4B054618784FF47A73B3FBF0F3C1
:10015C000B4A1068B0FBF3F000F09EF8044658B957
:10016C000F2D09D8024629464FF0FF3000F054F805
:10017C00044B20461D6038BD012038BD0000002016
:10018C000800002004000020074A08B5136803206B
:10019C0043F01003136000F02DF80020FFF7D0FFA0
:1001AC0000F0BEFF002008BD00200240034A044BB3
:1001BC0011681B780B441360704700BF2C000020A3
:1001CC0000000020014B1868704700BF2C00002075
:1001DC0038B50446FFF7F6FF0546631C1EBF044BFB
:1001EC001B78E418FFF7EEFF401B8442FAD838BDA9
:1001FC0000000020074A0002D36800F4E06023F4FA
:10020C00E0631B041B0C43F0BF6343F40033034354
:10021C00D360704700ED00E0174B30B5DC68C4F3D9
:10022C000224C4F10703251D042B28BF0423062D2B
:10023C004FF0010598BF002405FA03F303F1FF33D7
:10024C0088BF033C1940A14005FA04F4013C22404C
:10025C00002842EA01024FEA0212AFBF00F16040EF
:10026C00064B00F00F00D2B2A5BFD2B200F5614030
:10027C001A5480F8002330BD00ED00E014ED00E0CE
:10028C000123420900F01F0003FA00F0014B43F870
:10029C002200704700E100E00138B0F1807F0AD203
:1002AC00F021064B064A586082F8231000200722E2
:1002BC0098601A6070470120704700BF10E000E0A2
:1002CC0000ED00E0044B04281A680CBF42F0040255
:1002DC0022F004021A60704710E000E0704708B585
:1002EC00FFF7FCFF08BD000090F8213010B5022B81
:1002FC0003D004238363012010BD03681A6822F025
:10030C000E021A601A6822F001021A60184A93420F
:10031C001FD0143293421ED0143293421DD014328B
:10032C0093421DD0143293421DD0143293420CBF11
:10033C004FF480134FF080730E4A00245360012356
:10034C0080F82130436B80F820407BB198472046E1
:10035C0010BD0123F0E71023EEE74FF48073EBE7B9
:10036C004FF48053E8E74FF48033E5E7184610BDAF
:10037C0008000240000002402DE9F74F002216460B
:10038C00654BDFF8A4E1DFF8A4C14FF001080C685D
:10039C0008FA06F808EA0404A0457FD14D68122D2E
:1003AC0000F0AF8000F28880022D00F0A7807CD88E
:1003BC00002D00F08E80012D00F09E804FF00F0973
:1003CC00FF2C93BF824606F18045083DD0F800B063
:1003DC0092BFB500D0F804B0AD0009FA05F82BEACD
:1003EC00080802FA05F588BF00F1040A48EA050579
:1003FC00CAF80050D1F804A01AF0805F4ED0474DD7
:10040C00464FAD6926F0030845F00105BD61BD6995
:10041C0008F1804805F00105019508F5803806F0D3
:10042C00030B019D4FEA8B0BD8F8085009FA0BF916
:10043C0025EA09093A4DA84268D005F58065A8421D
:10044C0066D005F58065A84264D005F58065A842A4
:10045C000CBF0325042505FA0BF545EA0905C8F878
:10046C0008501D681AF4803F14BF2543A5431D6036
:10047C005D681AF4003F14BF2543A5435D609D6879
:10048C001AF4801F14BF2543A5439D60DD681AF440
:10049C00001F14BF2C4325EA0404DC600136102E27
:1004AC007FF473AF03B0BDE8F08F032D22D0112D74
:1004BC0084D1CA68043281E71A4FBD4209D012D8E0
:1004CC00DFF86C904D4504D009F580394D457FF42B
:1004DC0075AF8A68C2B1012A0CBFC0F81080C0F891
:1004EC00148008226AE77545F3D06545F1D0DFF832
:1004FC004490EBE7002261E7CA685FE7CA680832FC
:10050C005CE7CA680C3259E7042257E70025A2E7DA
:10051C000125A0E702259EE70004014000100240DF
:10052C0000080140000021100000311000003210C2
:10053C0000001110000022100AB10161704709047B
:10054C00FBE7C3685940C1607047000003682DE9A0
:10055C00F341DB07054610D42B689F075ED42B684C
:10056C00190700F195802B685A0700F1BF80EA69E2
:10057C00002A40F02D81002014E0904C636803F0B9
:10058C000C03042B07D0636803F00C03082B0CD16D
:10059C006368DE0309D523689C03DDD56B68002BEB
:1005AC00DAD1012002B0BDE8F0816B68B3F5803F71
:1005BC0010D1236843F480332360FFF703FE064613
:1005CC0023689803C8D4FFF7FDFD801B6428F7D976
:1005DC000320E7E79BB9236823F480332360236867
:1005EC0023F480232360FFF7EDFD0646236899036F
:1005FC00B2D5FFF7E7FD801B6428F7D9E8E7B3F520
:10060C00A02F236803D143F480232360D1E723F484
:10061C0080332360236823F48023CDE7674C636821
:10062C0013F00C0F07D0636803F00C03082B10D1E8
:10063C006368DA030DD423689B0702D52B69012B61
:10064C00AFD123686A6923F0F80343EAC20323603D
:10065C0085E72A695A4B6AB101221A60FFF7B2FD8D
:10066C00064623689F07ECD4FFF7ACFD801B0228DD
:10067C00F7D9ADE71A60FFF7A5FD06462368980782
:10068C007FF56DAFFFF79EFD801B0228F6D99FE723
:10069C00AA694A4C4B4BDAB101221A60FFF792FD62
:1006AC000646636A9B070DD54FF4FA52464B1B68FE
:1006BC00B3FBF2F3019300BF019B5A1E0192002B76
:1006CC00F9D150E7FFF77EFD801B0228E9D97FE7BF
:1006DC001A60FFF777FD0646636A9F077FF543AF05
:1006EC00FFF770FD801B0228F6D971E7334CE369E4
:1006FC00D80024D40127E36943F08053E361E36914
:10070C0003F080530093009B304E3368D90518D505
:10071C00EB68012B26D1236A43F001032362FFF718
:10072C0051FD41F288368046236A9B073FD5002F46
:10073C003FF41DAFE36923F08053E36117E7002713
:10074C00E2E7336843F480733360FFF73BFD804688
:10075C003368DA05DCD4FFF735FDA0EB080064281C
:10076C00F6D935E7ABB9236A41F2883823F0010397
:10077C002362236A23F004032362FFF723FD06465A
:10078C00236A9807D3D5FFF71DFD801B4045F7D989
:10079C001EE7052B236A03D143F004032362BAE757
:1007AC0023F001032362236A23F00403B6E7FFF767
:1007BC0009FDA0EB0800B042B6D909E700100240D1
:1007CC0000004242800442420800002000700040B9
:1007DC00224C636803F00C03082B3FF4E2AE0023B9
:1007EC001F4E022A33602BD1FFF7ECFC074623681F
:1007FC0099011FD42B6AB3F5803F05D16268A968B3
:10080C0022F400320A436260696A62680B4322F484
:10081C0074121343636001233360FFF7D3FC054666
:10082C0023689A013FF5A7AEFFF7CCFC401B0228CA
:10083C00F6D9CDE6FFF7C6FCC01B0228D7D9C7E610
:10084C00FFF7C0FC054623689B017FF594AEFFF7CC
:10085C00B9FC401B0228F6D9BAE600BF00100240D2
:10086C006000424230B5194B87B002AC03F1100561
:10087C00224618685968083303C2AB421446F7D1B4
:10088C0001238DF80430022311498DF805304B6893
:10089C0003F00C02082A17D1C3F3834206A80244C2
:1008AC00DB0312F8102C0CD54B680A48C3F34043F9
:1008BC00504306AA134413F8143CB0FBF3F007B0F2
:1008CC0030BD05485043FAE70248F8E79813000892
:1008DC000010024000127A0000093D004D4A2DE93B
:1008EC00F0411368054603F007038B420E4628D3EC
:1008FC002A68910732D4D20738D4464A136803F0D9
:10090C0007039E4273D32A68434C12F0040F79D12B
:10091C00130706D563682A6923F4605343EAC203BC
:10092C006360FFF79FFF63683C4AC3F30313D35C18
:10093C00D8403B4B18600020FFF702FC0020BDE8BC
:10094C00F081136823F007030B431360136803F063
:10095C0007039942CCD00120BDE8F0812E49A8684C
:10096C004B6823F0F00303434B60C4E76A682A4CDE
:10097C00012A23681CD113F4003FECD0636841F2C8
:10098C00883823F0030313436360FFF71BFC6B6889
:10099C000746012B14D1636803F00C03042BACD075
:1009AC00FFF710FCC01B4045F5D90320BDE8F081D2
:1009BC00022A02D113F0007FDFE713F0020FDCE70D
:1009CC00022B0FD1636803F00C03082B95D0FFF7B3
:1009DC00F9FBC01B4045F5D9E7E7FFF7F3FBC01B5C
:1009EC004045E2D8636813F00C0FF6D185E7136825
:1009FC0023F0070333431360136803F007039E428D
:100A0C00A9D180E76368E96823F4E0630B43636072
:100A1C007EE700BF0020024000100240B613000821
:100A2C0008000020014B1868704700BF0800002028
:100A3C00044B054A5B68C3F30223D35C034A10687A
:100A4C00D840704700100240C61300080800002070
:100A5C00044B054A5B68C3F3C223D35C034A10689A
:100A6C00D840704700100240C61300080800002050
:100A7C000368DA6822F49072DA605A6922F0010293
:100A8C005A61202380F83A30704700002DE9F04776
:100A9C000568C2682B69016923F4405313432B6129
:100AAC008368EA680B43416922F4B05222F00C02CD
:100ABC000B431343EB606B69826923F4407313435C
:100ACC006B61404B81469D424FF0190446D1FFF7B4
:100ADC00BFFF04FB00F3D9F804604FF06408B600C4
:100AEC00B3FBF6F3B3FBF8F31E01FFF7B1FF604362
:100AFC00D9F804309B00B0FBF3F7FFF7A9FF604374
:100B0C00D9F804309B00B0FBF3F3B3FBF8F308FB0C
:100B1C0013731B013233B3FBF8F303F0F007FFF749
:100B2C0097FF6043D9F804209200B0FBF2FAFFF76C
:100B3C008FFF6043D9F804309B00B0FBF3F3B3FB99
:100B4C00F8F308FB13A31B013233B3FBF8F303F0E8
:100B5C000F033B433344AB60BDE8F087FFF768FFFE
:100B6C0004FB00F3D9F804604FF06408B600B3FB43
:100B7C00F6F3B3FBF8F31E01FFF75AFF6043D9F805
:100B8C0004309B00B0FBF3F7FFF752FF6043D9F83A
:100B9C0004309B00B0FBF3F3B3FBF8F308FB1373C7
:100BAC001B013233B3FBF8F303F0F007FFF740FF00
:100BBC006043D9F804209200B0FBF2FAFFF738FF3B
:100BCC00B7E700BF00380140F8B504460E4617469B
:100BDC001D4621680B6836EA030301D10020F8BDDD
:100BEC006B1CF7D095B923680320DA6822F4D07215
:100BFC00DA605A6922F001025A61202384F83930F4
:100C0C0084F83A30002384F83830F8BDFFF7DAFA6C
:100C1C00C01B8542DDD2E6E710B5044640B390F820
:100C2C00393003F0FF021BB980F8382000F024FBA8
:100C3C002423226884F83930D368204623F40053E7
:100C4C00D360FFF723FF236800201A6922F4904237
:100C5C001A615A6922F02A025A61DA6842F4005287
:100C6C00DA602023E06384F8393084F83A3010BD20
:100C7C00012010BD2DE9F0411F4690F83930044693
:100C8C00202B0D4690464ED1002949D0002A47D042
:100C9C0090F83830012B46D0012380F838300023EF
:100CAC00C363212380F83930FFF78CFA0646A4F889
:100CBC002480A4F82680E38C9BB26BB93B46324669
:100CCC0040212046FFF780FFA8B9202384F8380084
:100CDC0084F83930BDE8F081E38C3246013B9BB29D
:100CEC00E384A3688021B3F5805F20463B460ED198
:100CFC00FFF76AFF10B10320BDE8F0812B88226852
:100D0C00C3F308035360236943B90235D3E7FFF7F4
:100D1C005BFF0028EFD123682A785A600135CAE7B7
:100D2C000120BDE8F0810220BDE8F08190F83A3056
:100D3C00202B20D1E9B1E2B190F83830012B1AD038
:100D4C00C285828500232222C36380F83A20026880
:100D5C008162D16880F8383041F48071D16051697A
:100D6C00184641F001015161D16841F02001D16078
:100D7C0070470120704702207047704790F83A3056
:100D8C0010B5222B36D183680169B3F5805F0268F8
:100D9C00836A23D15268E9B9C2F3080223F8022B03
:100DAC008362C48D013CA4B2C4858CB90368DA6833
:100DBC0022F02002DA60DA6822F48072DA605A6972
:100DCC0022F001025A61202380F83A3000F00CF92D
:100DDC00002010BDD2B223F8012BE1E721B9591C38
:100DEC00526881621A70DCE75268591C816202F009
:100DFC007F02F7E7022010BD70470000036870B552
:100E0C001A6804461607D9685D6907D196065AD543
:100E1C008D0658D5BDE87040FFF7B0BF15F0010541
:100E2C0002D111F4907F4ED0D30705D5CE0542BF29
:100E3C00E36B43F00103E363500704D51DB1E36B8F
:100E4C0043F00203E363930704D51DB1E36B43F056
:100E5C000403E363160704D51DB1E36B43F00803E9
:100E6C00E363E36B002B66D0950604D5880602D5A8
:100E7C002046FFF783FF236820465D69E26B11076C
:100E8C0002D415F040051AD0FFF7F2FD23685A6919
:100E9C00520610D55A69606B22F040025A6150B16B
:100EAC00254B4363FFF720FA002844D0606BBDE864
:100EBC007040436B18472046FFF79EFF70BDFFF74D
:100ECC009BFFE56370BD160627D50D0625D594F856
:100EDC003920212A2FD1A268B2F5805F226A17D15E
:100EEC001188C1F308015960216979B90232226273
:100EFC00E28C013A92B2E284EAB9DA6822F080021A
:100F0C00DA60DA6842F04002DA6070BD0132EEE776
:100F1C00511C216212785A60EAE750060BD54A063A
:100F2C0009D5DA68204622F04002DA60202384F8E2
:100F3C003930FFF722FF70BD490F000808B50023B8
:100F4C00406AC385C384FFF757FF08BD234B2DE9C7
:100F5C00F0419A6988B042F010029A619A69DFF800
:100F6C00848002F010020192019A9A691C4C42F0A2
:100F7C0020029A619A69404602F020020292029A7B
:100F8C009A694FF4005142F004029A619B69002265
:100F9C0003F004030393039BFFF7CEFA00222046D1
:100FAC004FF40061FFF7C8FA01274FF400530226F3
:100FBC00032504A940460493059706960795FFF769
:100FCC00DBF94FF4006304A92046049305970696B9
:100FDC000795FFF7D1F908B0BDE8F0810010024089
:100FEC00000801400010014008B54FF400611148A1
:100FFC00FFF7A7FA104B93F90020002A0CDA93F9AB
:10100C000120002A08DB93F90230002B04DB4FF49B
:10101C0000510A48FFF795FA642303220649084851
:10102C00FFF728FEBDE80840032203490448FFF7F8
:10103C007DBE00BF000801402800002000100140C8
:10104C003000002008B5054C20464FF40051FFF746
:10105C0078FA4FF4FA70FFF7BBF8F5E7001001408F
:10106C004FF4803310B590B0012207930021022475
:10107C000E934FF4E01306A8069208910A920D9471
:10108C000F93FFF763FA18B192211348FFF7DAFFB9
:10109C000F2301934FF4806303900590214601A820
:1010AC0002940493FFF71AFC044608B1A021ECE764
:1010BC00FFF7B8FC4FF47A73B0FBF3F0FFF7ECF8E2
:1010CC000420FFF7FFF8224621464FF0FF30FFF7D0
:1010DC00A3F810B010BD00BFA813000808B5FFF7A7
:1010EC0053F8FFF7BDFFFFF731FF00F0A5F803221F
:1010FC0007490848FFF71AFE024618B1682106484E
:10110C00FFF7A0FF4FF400610448FFF715FAFEE764
:10111C002800002030000020A8130008000801401F
:10112C00254B07B59A69032042F001029A619A692E
:10113C0002F001020092009ADA6942F08052DA6100
:10114C00DB6903F080530193019BFFF753F80022F6
:10115C006FF00B001146FFF75FF800226FF00A00EA
:10116C001146FFF759F800226FF009001146FFF7FE
:10117C0053F800226FF004001146FFF74DF80022DF
:10118C006FF003001146FFF747F800226FF00100E3
:10119C001146FFF741F800224FF0FF301146FFF7E0
:1011AC003BF8064A536823F0E06343F00073536046
:1011BC0003B05DF804FB00BF0010024000000140CA
:1011CC007047FEE7FEE7FEE7FEE7704770477047A3
:1011DC0008B5FEF7EBFFBDE80840FFF780B800004C
:1011EC000148FFF70BBE00BF300000200F4B1A6800
:1011FC0042F001021A6059680D4A0A405A601A6896
:10120C0022F0847222F480321A601A6822F480224E
:10121C001A605A6822F4FE025A604FF41F029A6058
:10122C004FF00062034B9A60704700BF0010024001
:10123C000000FFF800ED00E008B547F6122E0B4851
:10124C000B4B0C2280E80840002342618360C36092
:10125C0003618361C361FFF7DFFC28B1BDE808407F
:10126C0042210448FFF7EEBE08BD00BF300000204D
:10127C0000380140CE13000810B50268164B86B03A
:10128C009A4227D103F558439A6902A942F4804245
:10129C009A619B69114803F480430193019B4FF4BD
:1012AC000073029302230393032300240593FFF797
:1012BC0063F84FF4806302A90848029303940494E2
:1012CC00FFF75AF8252022462146FEF7A5FF2520D8
:1012DC00FEF7D6FF06B010BD0038014000080140F3
:1012EC00002103E00B4B5B58435004310A480B4B75
:1012FC0042189A42F6D30A4A02E0002342F8043B11
:10130C00084B9A42F9D3FFF771FF00F00FF8FFF783
:10131C00E5FE7047E8130008000000200C000020D8
:10132C000C00002070000020FEE7000070B50025C6
:10133C000C4E0D4CA41BA410A54209D100F01AF8B8
:10134C0000250A4E0A4CA41BA410A54205D170BD61
:10135C0056F8253098470135EEE756F82530984772
:10136C000135F2E7E0130008E0130008E013000871
:10137C00E4130008F8B500BFF8BC08BC9E467047E3
:0C138C00F8B500BFF8BC08BC9E467047D6
:1013980002030405060708090A0B0C0D0E0F1010AE
:1013A8002E2E2F5372632F6D61696E2E630000001D
:1013B80000000000000001020304060708090000FD
:1013C8000000010203042E2E2F5372632F757361E0
:0813D80072742E630000000096
:0413E00031010008CF
:0413E4000D010008EF
:0C13E800010000001000000000A24A04F8
:04000005080012EDF0
:00000001FF
